:020000040800F2
:1000000000200020FD5A0008E9300008EB3000080D
:1000100000000000000000000000000000000000E0
:10002000000000000000000000000000ED300008AB
:100030000000000000000000EF300008F130000870
:100040004D5B00084D5B00084D5B00084D5B0008F0
:100050004D5B00084D5B00084D5B0008F93000085F
:10006000000000000D3100084D5B00084D5B0008EA
:100070004D5B00084D5B0008000000004D5B000870
:100080000000000000000000000000000000000070
:100090004D5B0008000000004D5B00084D5B000850
:1000A000000000004D5B00080000000000000000A0
:1000B0004D5B00084D5B00080000000000000000E0
:1000C00010B5064C2378002B07D1054B002B02D02E
:1000D000044800E000BF0123237010BD7800002019
:1000E0000000000010640008044B10B5002B03D082
:1000F0000349044800E000BF10BDC04600000000F6
:100100007C0000201064000803B4714649084000D8
:100110004900095E49008E4403BC70470022430831
:100120008B4274D303098B425FD3030A8B4244D3BF
:10013000030B8B4228D3030C8B420DD3FF22090201
:1001400012BA030C8B4202D31212090265D0030BC0
:100150008B4219D300E0090AC30B8B4201D3CB03B6
:10016000C01A5241830B8B4201D38B03C01A5241F8
:10017000430B8B4201D34B03C01A5241030B8B42FA
:1001800001D30B03C01A5241C30A8B4201D3CB02E5
:10019000C01A5241830A8B4201D38B02C01A5241CA
:1001A000430A8B4201D34B02C01A5241030A8B42CD
:1001B00001D30B02C01A5241CDD2C3098B4201D3E5
:1001C000CB01C01A524183098B4201D38B01C01A63
:1001D000524143098B4201D34B01C01A52410309DA
:1001E0008B4201D30B01C01A5241C3088B4201D389
:1001F000CB00C01A524183088B4201D38B00C01A36
:10020000524143088B4201D34B00C01A5241411A5C
:1002100000D20146524110467047FFE701B5002069
:1002200000F006F802BDC0460029F7D076E7704717
:100230007047C0468446101C62468C46191C6346B3
:1002400000E0C0461FB501F09BFA002801D4002150
:10025000C8421FBD10B501F0E5F94042013010BDA4
:1002600010B501F08DFA002801DB002010BD01203F
:1002700010BDC04610B501F083FA002801DD002052
:1002800010BD012010BDC04610B501F007FA0028CE
:1002900001DC002010BD012010BDC04610B501F0EA
:1002A000FDF9002801DA002010BD012010BDC04674
:1002B0008446081C6146FFE71FB500F0FDFA0028E0
:1002C00001D40021C8421FBD10B500F081FA4042A0
:1002D000013010BD10B500F0EFFA002801DB00205E
:1002E00010BD012010BDC04610B500F0E5FA002891
:1002F00001DD002010BD012010BDC04610B500F08A
:100300008FFA002801DC002010BD012010BDC0467E
:1003100010B500F085FA002801DA002010BD012098
:1003200010BDC046002B11D1002A0FD1002900D1E9
:10033000002802D00021C943081C07B4024802A1CA
:100340004018029003BDC046E9FEFFFF03B46846B3
:1003500001B5029800F064F8019B9E4602B00CBC07
:100360007047C046F0B515042D0C0F0001002E009B
:10037000C64684460004140C000C090C46434D4349
:10038000604361434019340C241800B5A54203D9D9
:100390008020400280464144250C6D186146594337
:1003A0007A43300449192404000C2018891880BCB1
:1003B000B846F0BD9E2110B5C905041CFFF7A8FF83
:1003C000002803D1201C00F0A3FD10BD9E21201C9D
:1003D000C90500F0D5FB00F09BFD80231B069C4661
:1003E0006044F2E770B500220C4B04000D00FFF7EB
:1003F00055FF002804D12000290002F02FF870BD1D
:10040000064B00222000290001F096FC02F026F89D
:1004100080231B069C466044F1E7C0460000E04193
:10042000F0B557464E464546DE46E0B504000D00A1
:100430009246994683B08B4230D82DD049465046DB
:1004400002F060F929000600200002F05BF9331A7F
:100450009846203B9B4633D45A46534693404246E7
:100460001F00534693401E00AF423AD8AF4200D11E
:1004700078E05B46A41BBD41002B00DA75E000224A
:1004800000230092019301235A46934001930123D4
:1004900042469340009328E08242CFD900220023B5
:1004A000009201930C9B002B01D01C605D600098B2
:1004B000019903B0F0BCBB46B246A946A046F0BDC8
:1004C000424620239B1A5246DA40414613004A46D0
:1004D0008A40170042461F43534693401E00AF42D6
:1004E000C4D900220023009201934346002BD9D0A7
:1004F000FB0772081A4346467B080EE0AB4201D167
:10050000A2420CD8A41A9D41012024196D4100215A
:10051000013E24184D41002E06D0AB42EED9013EDB
:1005200024196D41002EF8D1009801995B460019FD
:100530006941002B24DB2B005A464446D3402A0055
:10054000E2401C005B461500002B2ADB26009E4083
:10055000330026004746BE403200801A9941009081
:1005600001919FE7A342BCD883E7424620230021A4
:100570009B1A0022009101920122DA40019286E743
:10058000424620239B1A2A0046469A402300F34005
:10059000444613432A00E2401C005B461500002B32
:1005A000D4DA42462F002023260097409B1ADE40D3
:1005B0003B003343CDE7C046F0B54F464646D646EE
:1005C0004502C0B547000C1C6D0A3F0EC60F002F38
:1005D00066D0FF2F6CD00023EA00802599469A460A
:1005E000ED0415437F3F60026100430A9846090EFF
:1005F000E40F002948D0FF2910D08022D800D2046F
:100600000243904600207F394A4633007F1A024356
:100610006C4992008A586340DBB29746002B6DD13B
:100620000220FF3F33E000239846260045468246DD
:100630005346022B00D17FE0032B00D194E0012B25
:1006400017D038007F3000285FDD6B0704D00F2300
:100650002B40042B00D004352B0103D538005A4B16
:1006600080301D40FE2867DCAD016D0AC0B202E09B
:100670001E0000200025C0052843F6073043E0BCDB
:10068000BA46B146A846F0BD002B2BD101204A4600
:1006900033004E49024392008A586340DBB29746CA
:1006A000002D13D104239946033B00279A469AE76D
:1006B000002D05D108239946063BFF279A4692E76D
:1006C0000C239946093BFF279A468CE7280001F046
:1006D000FBFF7627431F9D4000237F4299469A46A1
:1006E0003F1A80E7180001F0EFFF4246431F7621D2
:1006F0009A404942091A9046002085E7FF210320CD
:1007000082E71E00FF200025B5E701231B1A1B2BE3
:10071000AFDC9E372900BD40D9406A1E95410D438C
:100720006B0704D00F232B40042B00D004356B0142
:1007300044D5012000259EE7FF2000259BE780256A
:100740000026FF20ED0396E7002398468020C00393
:10075000054209D04346034206D1454605436D0292
:100760002600FF206D0A86E78020C00305436D0246
:10077000FF206D0A7FE741466A014801824219D293
:100780001B210025013F012614006D005200002CA2
:1007900001DB904201D8121A354301390029F3D107
:1007A000501E824138007F301E001543002800DDB6
:1007B0004BE7AAE71A210125121AE4E7AD01002050
:1007C0006D0A58E728640008FFFFFFF76864000817
:1007D00070B542004E024C0045026D0A120EC30F66
:1007E000760A240EC90FFF2A0FD0FF2C11D001204A
:1007F000A24200D070BDB542FCD18B420DD0002A80
:10080000F8D12800451EA841F4E70120002DF1D1C0
:10081000EBE70120002EEDD1E9E70020EAE7C04632
:10082000F0B5420046024D024C00C30F760A120E8C
:100830006D0A240EC80FFF2A1FD0FF2C10D0002AEB
:100840001FD171427141002C01D1002D1ED0002911
:100850000ED183421ED00221581E08400138F0BD3F
:10086000002D26D1002AF4D1714271410029F0D027
:100870000028F4D101204042F1E7002E19D1FF2CCD
:10088000EED0002CE5D1002DE3D1E4E70020002ECE
:10089000E5D0E0E7A24205DCEADBAE4202D8E7D3CE
:1008A0000020DCE741424141484202210840013832
:1008B000D5E702204042D2E7F0B5420046024D02A1
:1008C0004C00C30F760A120E6D0A240EC80FFF2AC1
:1008D0000DD0FF2C0FD0002A23D171427141002C82
:1008E0000FD1002D0DD10020002E14D00DE0002ED0
:1008F00010D1FF2C15D1002D0CD1002A03D171424B
:100900007141002908D1834210D00221581E0840AD
:10091000013800E00220F0BD0028FCD10120404257
:10092000F9E7002CEFD1002DEDD1EEE7A24205DC76
:10093000F2DBAE4202D8EFD30020ECE74142414166
:100940004842022108400138E5E7C046F8B557465D
:100950004E464546DE464402E0B545000F1C640A9B
:100960002D0EC60F002D47D0FF2D4DD00023802027
:100970009A469B46E400C00404437F3D7802430A44
:1009800099467A00FB0F9846120E4B4644D0FF2A38
:1009900011D0D8008023DB040343994600207F3A1E
:1009A000AD18474653467740691C0F2B3FD8724A13
:1009B0009B00D3589F46FF35002B00D079E052466C
:1009C00002231A4392460220EBE747464C468346F1
:1009D0005B46022B28D0032B00D1C6E0012B4FD160
:1009E00000200024C005FF0720433843F0BCBB466D
:1009F000B246A946A046F8BD002C71D104239A4600
:100A0000033B00259B46B9E7002C63D108239A4697
:100A1000063BFF259B46B1E7002B50D152460133E0
:100A20001A4392460120BCE7FF200024DAE748463B
:100A3000260C2404220C0404240C4B4620001B0C1E
:100A4000504374435A435E431219030C9B189C4253
:100A500003D9802252029446664400041A04000C12
:100A600012189401601E84411B0C920E9B191443B2
:100A70009B011C431B0172D50120630804401C43E9
:100A800008007F3000283CDD630704D00F2323409B
:100A9000042B00D00434230103D580310800374BE8
:100AA0001C40FE28C0DCA401640AC0B29AE73700EB
:100AB0008EE7524603231A439246032071E74846C5
:100AC00001F002FE4A46431F9A402D1A914600202B
:100AD000763D66E70C239A46093BFF259B464DE78A
:100AE000200001F0F1FD7625431F9C4000236D425C
:100AF0009A469B462D1A41E780240027FF20E403F5
:100B000070E701231B1A1B2B00DD69E79E312000D3
:100B10008C40D840631E9C410443630704D00F23DC
:100B20002340042B00D0043463011AD50120002493
:100B300058E78020C003044209D04B46034206D147
:100B40004C46044364024746FF20640A4AE780207B
:100B5000C003044364023700FF20640A42E729000F
:100B60008EE7A4010020640A3CE78020C003044310
:100B70006402FF20640A35E7A8640008FFFFFFF75E
:100B8000F0B54646D6464F4643025B0ADA00944625
:100B90004A02C0B54400560A051CB046240E4E0059
:100BA00092091F0020009246ED0F360EC90FFF2E4E
:100BB00000D17FE0012251408D4251D0A21B9146CD
:100BC000002A00DC7EE0002E00D199E0FF2C00D14D
:100BD0008CE080235246DB041A4392464A460123A6
:100BE0001B2A08DC53462021D340891A52468A40EA
:100BF000511E8A4113436246D31A5A0100D4F3E0CE
:100C00009B019E09300001F05FFD0538864084425B
:100C100000DDF7E03200041B20200134E240041B19
:100C2000A64033005E1EB341002413435A0704D08C
:100C30000F221A40042A00D004335A0100D4D6E00F
:100C4000621CFE2C00D1DAE09B015F0AD0B2C00525
:100C50003843ED072843E0BCBA46B146A846F0BD8C
:100C6000A21B9146002A63DD002E00D199E0FF2CE3
:100C70003CD080235246DB041A4392464A46012365
:100C80001B2A08DC53462021D340891A52468A4049
:100C9000511E8A41134363445A0100D4A4E0013435
:100CA000FF2C00D1ABE0012297491A405B080B40B2
:100CB0001343BBE7002A32D08D4235D0FF22524287
:100CC0009146A1444A46002A51D0301B002C00D046
:100CD0009CE06346002B00D1DFE00138002800D102
:100CE000F7E0FF2E00D099E00D004346002B00D125
:100CF00085E08027FF031F437F02FF207F0AA6E7CE
:100D00005246002A74D0012252429046C1444A46BB
:100D1000002A00D1C8E0FF2C00D05FE7E6E70122FF
:100D20005140A94200D049E7FF2252429146A144D6
:100D30004A46002A43D0311B002C00D18CE0FF2E04
:100D400000D192E080236246DB041A4394460123DB
:100D50001B2909DC202063466246CB40411A8A40A9
:100D60001100481E81410B433400534494E7FE2296
:100D7000661C324264D1002C00D082E06346002B16
:100D800000D1ABE05346002B00D160E763465246EA
:100D90009B1A5A0100D4AAE0634652460D00D31AAA
:100DA00044E75246002A23D0012252429046C144D1
:100DB0004A46002A75D0FF2C00D05FE796E7FE2652
:100DC0000134264253D1002872D16346002B00D152
:100DD00093E05346002B00D139E7634400245A01C5
:100DE00002D54A4A013413405A0700D020E7DB08F5
:100DF000FF2C00D17AE75B025F0AE0B227E7FF2011
:100E0000002724E7414B241A33400FE7FF2E00D17F
:100E10006AE780236246DB041A43944601231B28B9
:100E200009DC202463466246C340201A8240100039
:100E3000441EA041034352460D003400D31ADCE6A1
:100E4000634652469E1A730117D4002E00D0D9E68D
:100E5000002500200027FAE66346002B44D0013924
:100E600000294CD0FF2E00D071E743463EE7FF2C0F
:100E7000C5D0524662445308B6E763460D00D61A01
:100E8000C0E66246002A16D15346002B00D02BE75D
:100E900080270025FF20FF03D9E60D0043463400DC
:100EA000A6E753466344F7E6634652469B1AA4E618
:100EB0006246002AD9D05246002A00D116E7802285
:100EC000D203134200D111E74046104200D00DE793
:100ED0000AE752460D003400D31A8EE65346002B23
:100EE00008D00D004746B2E64346340080E7002BA9
:100EF00000D079E700250027A9E64746A7E6534634
:100F000034006344C8E6C046FFFFFF7DFFFFFFFBE0
:100F100041024200C30F490A0020120E7E2A03D963
:100F20009D2A02D9094A981870478020000401437D
:100F3000952A07DC9620821AD1404842002BF3D133
:100F40000800F1E7963A9140F7E7C046FFFFFF7FC0
:100F500070B5002813D0C317C5185D40C40F280012
:100F600001F0B2FB9E2301001B1A962B0FDC082810
:100F700001DD08398D406D026D0AD8B202E000240F
:100F800000200025C0052843E407204370BD992BAD
:100F90000BDD05222E00121AD64002001B329540AE
:100FA0002800451EA84135000543052901DD4A1FDB
:100FB00095402A00084E3240680709D00F2028408B
:100FC000042805D00432500102D59F2332405B1A19
:100FD0009201550AD8B2D5E7FFFFFFFB70B5051E99
:100FE0000ED001F071FB9E2304001B1A962B0CDC23
:100FF000082801DD083CA5406D026D0AD8B201E069
:1010000000200025C005284370BD992B09DD020092
:1010100029001B3291404A1E91410522121AD540E7
:101020000D43052C01DD621F95402900084E31401B
:101030006A0709D00F202840042805D004314A014E
:1010400002D59F2331401B1B89014D0AD8B2D9E735
:10105000FFFFFFFBF0B557464E464546DE46E0B57E
:10106000814605000C03480092461F0085B0240B02
:10107000400DCE0F002859D0874B984200D198E000
:101080006B0FE4001C4380231B0423439846834BCF
:10109000ED009B4600239946834400933C037B006C
:1010A0005046240B5B0DFF0F002B67D07A4A93420A
:1010B00018D07A49420F8C46E400594614438022E6
:1010C00063441204CB1A14439B46C2000020330031
:1010D0007B409A464B460F2B00D9EFE070499B00AE
:1010E000CB589F466F4B52469C462243E344002A0E
:1010F00000D095E049460223194389460024022086
:10110000E5E700230024002552461B052343D207B0
:1011100013432800190005B0F0BCBB46B246A946EF
:10112000A046F0BD002400255B4BEDE74B46234372
:10113000984600D189E0002C00D1E0E1200001F0C8
:10114000C3FA010002000B391D235B1A4946100047
:10115000D940083884400B004D46234398468540CB
:1011600051483C03831A9B460023994600937B0019
:101170005046240B5B0DFF0F002B97D152462243A4
:1011800055D0002C00D1CAE1200001F09DFA0200E8
:101190000B3A1D2301009B1A52460839DA408C4055
:1011A000144352468A40414B58449B468344002096
:1011B0008DE74B462343984640D108239946063B8A
:1011C00000258346009369E7B246009B022BA9D015
:1011D000032B00D111E2012B93D0354A5A44002A47
:1011E00000DC3CE16B0700D0A7E1ED084346DB01E2
:1011F00006D542462F4B1A4090468022D2005A44D0
:101200002D4B9A428EDC4346520558075C0205433B
:10121000240B530D78E7BA46A04615000090D4E79A
:101220004A4603231A439146032052464FE7494654
:101230000123194389460024012048E70C239946DD
:10124000093BA0468346009328E7042399460023E0
:101250009B4601330025009320E7002380249A4613
:1012600000250D4B24034FE7802341461B03194201
:1012700008D01C4206D11C432403BA461500064B75
:10128000240B41E78024434624031C432403B24635
:10129000014B240B38E7C046FF07000001FCFFFFAD
:1012A000E864000801F8FFFF0DFCFFFFF3030000F6
:1012B000FF030000FFFFFFFEFE070000444500D2D1
:1012C00016E100D111E101235B429C462E0040460D
:1012D0000025E3442302140E1C431B0C99462304EF
:1012E0001F0C1202494600920197FEF79DFF020073
:1012F0007A430B04310C804619438A420BD90123EF
:101300005B429C460919E0448C4204D88A4202D9C7
:10131000831E98460919881A4946FEF785FF090475
:101320008C4631046646019A090C4243030031435E
:101330008A4204D90919013B8C4200D811E1891A6B
:101340004246009E12041A43330C1F00100C9046B4
:10135000029313043204160C32001B0C5A430396FA
:101360007B4346437843170CBC469B1963449E421B
:1013700003D980267602B44660441E0C3018160449
:101380001B04360C9E19814200D29CE000D197E0EC
:10139000AE1B091AB54280414042081A844200D16E
:1013A00011E14946FEF740FF019A0B044243310C1C
:1013B000050019438A4207D90919013D8C4203D817
:1013C0008A4201D9851E0919881A4946FEF72CFF61
:1013D00009048C4631046646019A090C4243030015
:1013E00031438A4207D90919013B8C4203D88A420A
:1013F00001D9831E0919039E891A32002D041D4349
:10140000029F2B041B0C5A437B439C46280C4643EB
:10141000130CB444634478439E4203D98026760279
:10142000B44660441E0C12041B04120C30189B18A6
:10143000814206D302D001231D43CEE6002B00D10A
:10144000CBE661186E1EA14200D2A4E0814200D218
:10145000C9E000D1D9E03500EDE701256D42012159
:10146000891A382900DD4CE61F2900DC7FE01F23A4
:101470005B429A1A4346D340202904D04446654A29
:101480005A44944025436A1E954107222B43150078
:1014900000241D401A4200D1A1E00F2200241A406E
:1014A000042A00D198E01A1D9A429B415B42E4183D
:1014B0001300220200D48FE001230024002523E63C
:1014C000B54200D364E743465A1E009B9C466544E0
:1014D0001F009D429B415B421B19C9188C423AD2A6
:1014E000884263D860D0904652E7AA4200D9EAE623
:1014F0004346DE0758086B081E43ED07EAE64846F8
:1015000001F0E2F801000200153120321C2900DC54
:101510001AE64B46083883400025984620E601F03D
:10152000D3F803001A00153220301C2A00DC30E604
:101530005446083B00229C4035E60F232B40042BE9
:1015400000D152E605235B42AB429B4104355B422E
:10155000ED0898444AE68C42C5D1AF42C0D99046C6
:1015600016E78A4200D8EAE6831E0919E7E62A4A06
:1015700028005A44434695409340C8406A1E95410E
:10158000444603432B43CC405A0792D00F221A40C3
:10159000042A88D18DE73500814200D04BE7009ABC
:1015A000934200D047E718E6AE429CD902235B4243
:1015B0009C46009BE0449C4665449D429B415B42A7
:1015C0001B19C918E4E6154A5A44002A00DC44E70E
:1015D00001230025984409E665076402240BDB0813
:1015E0001D43002390E5009E023D7200B242BF41C0
:1015F0007F423C1909190092CEE780244346240318
:101600001C432403064B240B7EE5009A9A42EAD33E
:101610003500C4E73E0400001E040000FF03000084
:10162000FF070000F0B54F464646D6469446914621
:101630001A03120B184DC0B54C000F0392465A0006
:10164000060080463F0B0120640DC90F520DDB0FD1
:10165000AC420AD0AA4203D0944201D157450DD0E2
:10166000E0BCBA46B146A846F0BD3D003543F7D1CF
:10167000A242F5D1524665462A43F1D10120C84520
:10168000EED1994206D0002CEAD13E433000461EEE
:10169000B041E5E70020E3E7FF070000F0B54E4664
:1016A00045465746DE4604001800E0B516001B0309
:1016B0001B0B324D0F034A0099464300A446B04627
:1016C0003F0B520DC90F5B0DC00FAA4229D0AB4290
:1016D00018D0002A2AD13C43A34665426541002B1D
:1016E00002D14C46264327D0002D15D1814228D067
:1016F0000220013908400138F0BCBB46B246A94679
:10170000A046F0BD4D462E432FD1002AEED13C43DA
:1017100065426541002DE9D00028EDD1012040420D
:10172000EAE73D00254320D19342EBD0002BDDD1E9
:101730004C462643DAD1DBE75B460020002BDBD0AA
:10174000D6E79A420ADCE7DB4F45D1D810D000201B
:101750004F45D1D20029E1D00800CDE7434258419E
:101760000223404218400138C6E702204042C3E746
:10177000C445BDD80020C445BED2EBE7FF0700003A
:10178000F0B54E4645465746DE4604001800E0B523
:1017900016001B031B0B314D0F034A0099464300F3
:1017A000A446B0463F0B520DC90F5B0DC00FAA42B5
:1017B00011D0AB4214D0002A2FD13C43A34665423E
:1017C0006541002B14D14C46264311D15B460020C5
:1017D000002B17D010E03D00254312D193421CD1BD
:1017E0004D462E430DD1002A04D13C43654265414C
:1017F000002D0DD1814216D0022001390840013858
:1018000000E00220F0BCBB46B246A946A046F0BDAF
:101810000028F7D101204042F4E7002BEAD14C46E2
:101820002643E7D1E8E79A4206DD434258410223C6
:10183000404218400138E5E79A42E9DB4F45DBD8E2
:1018400006D000204F45DDD20029E3D00800D9E7BB
:10185000C445D1D80020C445D4D2F5E7FF07000025
:10186000F0B557464E464546DE46E0B598460C0371
:101870004B000600924687B0240B5B0DCF0F002B68
:101880006CD0DD4A934200D186E0420FE40014435D
:10189000802212041443D94AC5009446634400933D
:1018A000002399469B46434642461E03D20F5B00E7
:1018B00050469046360B5B0D00D178E0CE4A9342FD
:1018C0001DD0CE49420F8C4600996344F6008C46E9
:1018D000164380229C44120463461643C200002033
:1018E00000930099434601318C4649467B40019361
:1018F0000F2900D97EE0C24B890059588F465246C5
:10190000009B324300D056E1BB4900268C4663441D
:10191000494600930223194389460220E1E74346E2
:1019200001933400150083465B46022B5ED0032BE7
:1019300000D1F3E1012B00D018E1002200240025A2
:10194000019B12052243DB071A432800110007B050
:10195000F0BCBB46B246A946A046F0BD25000543F3
:1019600000D141E1002C00D1ADE1200000F0ACFE3F
:10197000010002000B391D2310005B1A31003500F5
:1019800008388440D94085400C439E48831A009310
:10199000002399469B4686E70500254300D01CE1BD
:1019A000082200930223002491469B467BE752467F
:1019B000324300D10AE1002E00D176E1300000F080
:1019C00083FE02000B3A1D2301009B1A5246083980
:1019D000DA408E40164352468A40009B8949181AC5
:1019E00003008C466344002000937AE7002400251E
:1019F000814AA5E72F0C2D042D0C2B00110C12048D
:101A0000120C53439846130028007B4399464843E1
:101A10004844834640460B00000C824658467B43B0
:101A200050440293814506D99A4680235B02994629
:101A3000CA4453460293030C9B4643461B040004CE
:101A40001B0C9846030043440493330C99462B0027
:101A50003604360C7343984633007B439A464B4614
:101A60005D435F4343465544180C4019824503D9F2
:101A700080235B029A465744050CEB1905934346B5
:101A80001D042D0C00044019250C2404240C2700EF
:101A900057436A4390462A003B0C9A464A436143A7
:101AA000414451448344884503D980235B029846CE
:101AB00042443F040B0C3F0C0904C9192700984607
:101AC0004B4677435C436E435D433B0C9946A419F8
:101AD0004C4442440395A64204D980235B029846B5
:101AE00045440395029B3F045B441E0083428041B2
:101AF00023049846059B3F0C4744984676188E422F
:101B00008941474440423D18A846934649428A4687
:101B1000C3449F42BF4180458041039BDA449846BD
:101B2000534640427F420743240C934592418A45E5
:101B300089413F19DC0D049B75021D43681E8541D8
:101B40005346524249420A43BF184744F60D7F02AA
:101B500035435A023C431543FB0100D4C1E0012147
:101B60006A080D401543E20715436408264961449D
:101B7000002956DD6B0709D00F222A40042A05D020
:101B80002A1DAA42AD416D4264191500E30104D536
:101B900080211E4AC900144061441D4A914200DD63
:101BA00024E76207ED08640249051543240B4A0D3A
:101BB000C6E60197B8E6104A0320944663444A46B5
:101BC000009303231A43914652468AE6494601236D
:101BD000194389460026012083E60C220093032343
:101BE000050091469B465EE6042399460023009338
:101BF000013300249B4656E6FF07000001FCFFFF6F
:101C0000286500080DFCFFFFFF030000FFFFFFFE3B
:101C1000FE070000002380240025444A019324038A
:101C20008EE60120401A382800DD86E61F285BDD9D
:101C30001F2223005242511ACB401900202803D002
:101C40003B4A6244944025436A1E95412A000A4358
:101C500007210D000024154011425BD00F21002404
:101C60001140042953D0111D914292415242A418AF
:101C70000A0023024BD501220024002560E68023C0
:101C80001B031C4209D01E4207D133431C034346A9
:101C90001500240B254A019352E6802212031443B7
:101CA0002403224A240B01974AE600F00DFD0300AD
:101CB0001A00153220301C2A00DC84E65646083B08
:101CC00000229E4089E600F0FFFC01000200153171
:101CD00020321C2900DC4EE6340008380025844000
:101CE00053E6009B9C4641E71249220061442E00C6
:101CF0008D408A40C640691E8D4132432A43C4400C
:101D00005307B6D00F2111400429ACD1B1E76507C4
:101D10006402240BD2081543002211E6802212032C
:101D200014432403014A240B0AE6C046FF070000BF
:101D30003E0400001E040000F8B557464E464546D6
:101D4000DE460400E0B51F0010000B03620F4E00DA
:101D5000CD0F5B0A39031343490AE200440F2143C4
:101D6000C24C91469246C0007A008046760D520DD4
:101D7000FF0FA24200D1B4E001246740BB46BD4240
:101D800000D188E0B41AA446002C00DCB2E0002A9E
:101D900000D1C5E0B54A964200D18BE28022120400
:101DA00011436246382A00DDA1E11F2A00DD16E258
:101DB00020270C00BF1ABC400200A0466446B84071
:101DC000E240444614430200501E82416046C14036
:101DD00022435B1A49468C1AA145924152429B1AF2
:101DE000984643461B0200D417E143465B025B0A58
:101DF00098464346002B00D16CE1404600F064FC5D
:101E00000200083A202120004346891A9340C84026
:101E100094400343964200DD57E1961B711C1F2935
:101E200000DDCBE1202218002600521A9440904099
:101E3000CE40CB40621E9441304398460026044376
:101E4000630709D00F232340042B05D0231DA34291
:101E5000A4416442A0441C0043461B0200D4DFE0BE
:101E6000824B01369E4200D1FBE04246804BE408A3
:101E70001A401300710552075B0222431B0B490DE8
:101E80000905ED07194329431000F0BCBB46B246D3
:101E9000A946A046F8BDB41AA446002C58DD002A75
:101EA00000D19EE0714A964200D13BE180221204AB
:101EB00011436246382A00DDC1E01F2A00DCBBE185
:101EC0000C00203AD44022006446202C04D0402745
:101ED0003F1BB940084380464446611E8C41144371
:101EE000B1E00C0004432AD0BB46BD422DD0614C6A
:101EF000A446B4446446002C5CD0941BA446002E37
:101F000000D015E14D461D4300D1C3E1651E012CF3
:101F100000D10CE2554EB44200D1F8E1AC460EE1DE
:101F20000A00024300D136E12200013A012C00D11F
:101F3000C6E14E4CA44500D1F4E0944631E70124BB
:101F40006740BB46BD4200D01CE74A4CA446B4449F
:101F50006446002C00D1CFE0941BA446002E00D193
:101F60005CE1424EB24200D1ECE1802636043343BC
:101F70006446382C00DDB3E11F2C00DD38E220265A
:101F8000361B1C00B4404F46A0466446E74044461A
:101F90003C434F46B7403E00771EBE413443664641
:101FA000F340C918241884429B415B4298461600AE
:101FB00088444EE0304A741C144200D0D6E04A46B1
:101FC0001A43002E00D05BE1002A00D1A5E10A00EF
:101FD000024300D0BBE14A465907D2080A43DB0856
:101FE00027E00A00024300D174E12200013A012CEB
:101FF00005D01E4CA44500D194E0944659E74844CE
:10200000484592415B18984604005242904443462A
:1020100002261B0200D5C4E0013E630700D011E791
:102020004346B4465907E2080A43DB080F498C458A
:1020300040D061461B0349051B0B490D20E70143B6
:102040000C00611E8C414C444C45924152429046DA
:10205000984443461B02E0D5044B01369E4200D013
:102060009FE03100002300220AE7C046FF0700007E
:10207000FFFF7FFF01F8FFFFFE070000002A00D1ED
:1020800060E10A0002434DD04A465C07D208224371
:102090008024DB082403234207D0CE08264204D143
:1020A0005D463300C20849070A43510FD200D208E7
:1020B00049070A431100194300D1C8E180210903EF
:1020C0000B431B03D5491B0BDAE6D549B61A0B4067
:1020D0009846B5E6200000F0F7FA020018321F2AF1
:1020E00000DC8FE6230008388340002492E6084392
:1020F0000200501E82416DE6CA4C721C224200D082
:10210000ADE04A461A43002EB8D1002A00D158E16A
:102110000A00024300D059E14A465907D2080A434F
:10212000DB0886E74A465907D2080A43DB08C1E7BD
:10213000BA4DAA4200D11EE180252D042B436446EE
:10214000382C5DDC1F2C00DDD0E0202567462D1BE0
:102150004E461C00FE40AC4034434E46AE40350077
:10216000FB406E1EB541C91A2C434EE04A46141A74
:10217000A1459241524290465F1A3A004746D21B0F
:102180009046120200D58BE04246224300D030E652
:10219000002300254DE74A465907D2080A43DB08C9
:1021A00044E742469E4B61081A4013000122144046
:1021B0000C43DA075B089846144341E61A001F3EB9
:1021C000F2401600202903D04022511A8B401C43B4
:1021D000621E944100233443984600261DE70C00FC
:1021E000203AD44022006446202C04D040273F1BD4
:1021F000B940084380464446611E8C412243E9E5CC
:102200004C4623431C00631E9C41041BA0429B417F
:102210005B42CB1A98465D461600E2E54E461E43E9
:1022200000D1AEE0661E012C00D1FDE07B4FBC4228
:1022300000D107E1B4469BE664462022121B0C0045
:10224000944007009040A0466446421E904162467A
:10225000E7404446D1403C4304435B18F3E66F4CEF
:10226000A24200D1D5E048445B1848458941494223
:102270005B18DC0740085B08984616000443CCE670
:10228000002A00D082E00A00024340D180230025CA
:102290001B0313E74B07C2081A435D46CB08C5E68C
:1022A0004A46841AA0429241CB1A52429B1A98463F
:1022B0005D469EE54A465907D2080A43DB08F9E61F
:1022C0004A46141AA14592415B1A52429B1A9846FB
:1022D000012686E54A465907D2080A43DB08A5E6E7
:1022E0004C4623431C00631E9C415BE665461E0072
:1022F000203DEE40202C05D040252D1BAB404C4608
:102300001C43A2465446631E9C4134437DE74B0761
:10231000C2081A435D46CB08CCE60A00024300D14E
:1023200036E74B07C2081A435D46CB0881E64A46AA
:10233000841AA0429241CB1A52429B1A98465D469B
:1023400001264EE54B07C2081A43CB08B2E64A46BF
:10235000141AA14592415F1A5242BA1A90461202CB
:102360006BD54A46841AA0429241CB1A52429B1A1C
:1023700098465D4664E54B07C2081A435D46CB08A4
:1023800098E64B07C2081A43CB084FE60A000243FF
:1023900090D04A465C07D20814438022DB0812031F
:1023A000134208D0CE08164205D1C0084907084399
:1023B00004005D463300610FE2004907D2080A437A
:1023C00078E64B07C2081A43CB0832E648445B184C
:1023D00048459241984652429044434604001B02AD
:1023E00000D41AE642460E4B01261A40904614E6E7
:1023F00066461F00203EF740202C05D04026361BA5
:10240000B3404C461C43A2465446631E9C413C4389
:10241000C8E511000023002232E5C046FF07000096
:10242000FFFF7FFFFE0700004A46141884429241D6
:102430005B18984652429044E9E54246224300D157
:10244000A6E6EAE54B07C2081A43CB0832E60022AB
:102450000149130014E5C046FF0700000A0030B52B
:10246000134C530009030500090B00205B0DD20F2C
:10247000A34204DD0F48834202DD0F4BD01830BD6C
:102480008020400301430D48C01A1F2808DD0C4876
:10249000C31AD9400B005842002AF0D11800EEE7C9
:1024A000084CC540A446634499400B002B43F2E717
:1024B000FE0300001D040000FFFFFF7F3304000047
:1024C00013040000EDFBFFFF70B5002816D0C31702
:1024D000C5185D40C40F280000F0F6F8114A121A22
:1024E0000A2816DC03002E0015339E400B23181A11
:1024F000C54053052D032D0B5B0D03E00024002385
:10250000002500261B052B43E40723433000190058
:1025100070BD0B38854053052D0300262D0B5B0D38
:10252000F0E7C0461E04000070B543004602C40F29
:10253000FE201B0E591C750A08420CD0E0229200A6
:1025400094466D07360B63441B053343E40723436E
:102550002800190070BD002B14D1002D1BD02800BD
:1025600000F0B2F80A281CDC0B232A001B1ADA4000
:10257000030015339D400E4B12031B1A5B05160B0F
:102580005B0DE1E7002D09D0320B80263603094BA5
:102590006D071643D8E700230026D5E70026054B34
:1025A000D2E703002A000B3B9A400025E3E7C04630
:1025B00089030000FF07000002004B00F0B508038C
:1025C0005B0D3D4ECC0F400A510F5F1C0843D500F8
:1025D00037420AD039495E18FE2E16DDFF2300214E
:1025E000DB050B43E0071843F0BD002B06D1284361
:1025F00027D005218901490ADBB2F1E70543EDD077
:102600008021C903FF230143EAE7002E1CDD92016C
:1026100011004A1E9141C0006D0F014329434B0731
:1026200048D00F230B40042B00D004318023DB045F
:102630000B403FD0721CFE2ED0D08901490AD3B284
:10264000CEE700230021CBE73200173222DB8021C6
:102650001E2209040843921B1F2A1DDD0221494244
:102660008E1B0100F1400E00202A04D0144A94462B
:1026700063449840054329004D1EA941314300267B
:102680004B07CED180200B00C00401220340014241
:10269000D3D1AFE70023ACE70A498C462900634455
:1026A000D1409D400A00290098404D1EA941014398
:1026B0001143E4E733009DE7FE07000080FCFFFFC5
:1026C000A2FCFFFF82FCFFFF1C2101231B04984298
:1026D00001D3000C10391B0A984201D3000A0839B3
:1026E0001B09984201D30009043902A2105C40186A
:1026F0007047C0460403020201010101000000000E
:102700000000000010B5002903D1FFF7DDFF2030E5
:1027100002E0081CFFF7D8FF10BDC046F0B5DE464A
:1027200057464E464546E0B585B007000E00914637
:102730001C1C00291ED164239A46002E1ED1554B25
:102740009B46201CFDF736FE05005046FEF746FC72
:102750008046211CFEF7FAF8FDF72CFE5146FDF7E6
:1027600063FD0B002A00594602A803F027FA002453
:102770000A2517E0FA239B009A46DEE7464B9B4664
:10278000DFE7E9B20023019304330093434B1D229A
:1027900000F06EFD02AB1B5D2E2B0CD01835404AAD
:1027A00013550134042C08DC02AB185D3C4B1B5D57
:1027B0009842EFD0E5E71835F1E74846FDF7FAFD16
:1027C000040049464046FEF7C1F8FDF7F3FD5146C7
:1027D000FDF72AFD0B002200594602A803F0EEF98E
:1027E00000240A2510E0E9B200230193043300938A
:1027F0002A4B5F2200F03CFD02AB1B5D2E2B0CD060
:102800001835284A13550134042C08DC02AB185D36
:10281000244B1B5D9842EFD0E5E71835F1E7224BDA
:102820001B68BB4210D0012F2AD0204B012F2AD089
:102830001F489BB20022019204320092B932052156
:1028400000F076FD184B1F601A4B1B68B34210D086
:10285000002E1AD1184B002E19D118489BB2002215
:10286000019204320092B932A52100F061FD114BB2
:102870001E6005B0F0BCBB46B246A946A046F0BDFE
:10288000FC23DB00D2E70E48D3E70E4BE3E70E480C
:10289000E4E7C0467065000868650008FFFF0000B7
:1028A000940000209C00002000000020E180000037
:1028B00078650008A400002020FD0000886500085D
:1028C0007C650008FF0700008065000872B6FEE71F
:1028D00000B599B0342200210BA803F066F9142248
:1028E000002106A803F061F918220021684603F0D0
:1028F0005CF91A490B681A4A1A4080231B011343DA
:102900000B6002230B93013B0E930F330F930023B5
:1029100014930BA801F03AFD002818D10F23069359
:102920000E3B07930023089309930A93002106A8FE
:1029300001F0BAFF00280CD1022300930023029378
:10294000684602F0C3F8002805D119B000BDFFF7B2
:10295000BDFFFFF7BBFFFFF7B9FFC04600700040A7
:10296000FFE7FFFFF0B5C64600B582B001F07EFC80
:10297000FFF7AEFF00F0E2F803F0A8F800F080F9EE
:1029800000F056FA00F0AAFA5E49002000F0ECFBD5
:1029900001F02EF800F010FB070000F027FA0021EC
:1029A00001F0E4FB022000F0FFFA00F0E5FA00F08D
:1029B000C8FD032000F07CFD002000F023FF524CF6
:1029C0000026019603250095230005220A214F4881
:1029D00000F0AEFC01960095230047220A214C48E6
:1029E00000F0A6FC019600952300A022052149488D
:1029F00000F09EFC019600952300A022A5214648E8
:102A000000F096FC0136002554E08021A020002231
:102A1000C900C00502F069FA00F0DAFBFFF754FDC7
:102A200000223E4BFEF716FBFFF718FD00F0D6FB29
:102A30000026FB78002B02D06B425D41EDB2012EE7
:102A400054D000F0C5FBFEF783FA3549FDF7B4FD1D
:102A50003449FDF77BFF041CFFF766FD324A334B18
:102A6000FEF7FEFEFFF7A8FD002D00D1002001F0CB
:102A700011F8002000F0BEF98046012000F0BAF9FC
:102A80004346181AFEF764FA2949FDF75FFF294902
:102A9000FDF792FDFFF748FD012E30D0224A234B6F
:102AA000FEF7D8FAFFF788FD031C221C310028002E
:102AB000FFF734FE00F098FAFB7A002BB9D0002E15
:102AC000A3D18021A0200122C900C00502F00DFA87
:102AD00000F07EFBFFF7F8FC0022104BFEF7C0FE73
:102AE000FFF7BCFC00F07AFB0136A2E700F070FBB8
:102AF000FEF72EFA0A49FDF75FFD041CB4E7002239
:102B00000D4BCDE7B80B0000FFFF000090650008FB
:102B10009C650008A0650008A86500080000244026
:102B200000803B4500002041A1D634EF3845B73F37
:102B30003333534000F07F450000F03F70B588B05C
:102B40001422002103A803F030F82C4BD96A042288
:102B50001143D962D96A0A400092009ADA6A0124C4
:102B60002243DA62DA6A22400192019AD96A022289
:102B70001143D962DB6A1A400292029BC221A0254E
:102B8000ED050022C900280002F0AFF98023DB0127
:102B90000393C4239B0304930594194E03A93000A7
:102BA00002F062F880231B02039388235B030493E3
:102BB000059403A9300002F057F884239B00039387
:102BC0000494002605960323069303A9280002F027
:102BD0004BF88023DB00039304940596069603A923
:102BE000280002F041F800220021072002F0B2FA8A
:102BF000072002F0DFFA08B070BDC04600100240A6
:102C00000008005070B586B01422002101A802F01F
:102C1000CCFF1A4BDA6A01252A43DA62DB6A2B40C1
:102C20000093009BA024E40500220421200002F070
:102C30005CF900220821200002F057F98026B60036
:102C400000223100200002F050F904230193029584
:102C5000002303930333049301A9200002F004F836
:102C60000823019301A9200001F0FEFF019601A9AC
:102C7000200001F0F9FF06B070BDC0460010024010
:102C800000B583B008220021684602F08EFF264876
:102C9000264B03600023C363C02212064260836098
:102CA00007228263063A0261C3601F3283540132F5
:102CB00083548362C222FF324262963AFF3A8354BF
:102CC000243A4261036383614363C36100F0B0FF50
:102CD00000281CD10123009380235B0101936946E6
:102CE000114801F0E5F9002814D1114B0093694611
:102CF0000D4801F0DDF900280FD10E4B0093694615
:102D0000094801F0D5F900280AD103B000BDFFF74A
:102D1000DDFDDFE7FFF7DAFDE7E7FFF7D7FDECE7DB
:102D2000FFF7D4FDF1E7C046040100200024014074
:102D30000200000400020024F0B589B0040014224F
:102D4000002103A802F031FF234B22689A4201D0F0
:102D500009B0F0BD214B596B802292000A435A639F
:102D6000D96A01221143D962D96A0A400192019AB3
:102D7000DA6A02273A43DA62DB6A3B400293029B3B
:102D800003260396049600250595A02003A9C005F7
:102D900001F06AFF03970496059503A9104801F016
:102DA00063FF1048104B036045608560C560802359
:102DB0000361803343618023DB008361C561056269
:102DC00002F0C0F8002803D1064BE3649C62BFE721
:102DD000FFF77CFDF8E7C0460024014000100240E8
:102DE00000040050BC00002008000240004870476A
:102DF0000401002070B50400022811D80A4E0B4DC2
:102E000006223100280001F06FF801214942280014
:102E100001F004F8280001F0B9F86400305B70BDDF
:102E2000FFF754FDEAE7C046A80000200401002097
:102E300010B50E480E4B036082235B0043600023F5
:102E40008360C36003614361802292008261C36139
:102E50000362436283620733C36202F07FFA002891
:102E600000D110BDFFF732FDFBE7C0466001002036
:102E70000030014010B586B004001422002101A8E2
:102E800002F093FE2268114B9A4201D006B010BDA9
:102E90000F4B596B802252010A435A63D96A0122AF
:102EA0001143D962DB6A1A400092009BE023019330
:102EB000DE3B029300230393032204920593A02098
:102EC00001A9C00501F0D0FEE0E7C0460030014096
:102ED00000100240004870476001002010B50C4807
:102EE0000C4B0360E1235B02436000238360C360FB
:102EF00003610C2242618361C3610362436202F099
:102F0000ADFD002800D110BDFFF7E0FCFBE7C04697
:102F1000B80100200044004010B586B0040014221F
:102F2000002101A802F041FE2268114B9A4201D013
:102F300006B010BD0F4B996B802292020A439A6330
:102F4000D96A01221143D962DB6A1A400092009BC0
:102F50000C2301930A3B029300230393033304934E
:102F600001330593A02001A9C00501F07DFEDFE734
:102F7000004400400010024010B50268074B9A421E
:102F800000D010BD064A936B06490B409363A02006
:102F90000C21C00501F028FFF3E7C04600440040C3
:102FA00000100240FFFFFDFF022801D101487047D9
:102FB0000020FCE7B801002010B5FFF717FF074B12
:102FC0001860074C0C220021200002F0EEFD0C22BC
:102FD0000021044802F0E9FD200010BD3C02002061
:102FE0004C0200204002002010B50220FFF702FF33
:102FF000072300E0013B002B07DB9A0036495258BB
:103000009042F7D9354AD05C00E000200121014010
:10301000334A1170334B1B78CB1A5C1EA341DBB2D1
:103020005370002B03D000290AD0002400E00024B4
:103030002B4A9470002B05D0002916D1002302E002
:103040000124F5E70023264AD370022101401171C3
:10305000244B1B79CB1A5C1EA341DBB25371002BAE
:1030600005D000290CD0002402E00123EBE7002466
:103070001B4A9471002B05D0002916D1002302E0D1
:103080000124F5E700231649CB71042202400A729D
:10309000144B1B7AD31A581E8341DBB24B72002BA0
:1030A00005D0002A0CD0002002E00123EBE700202D
:1030B0000B498872002B05D0002A0BD1002302E0B7
:1030C0000120F5E700230649CB720C22054802F0E7
:1030D00063FD10BD0123F6E7B0650008CC6500086C
:1030E0004C02002040020020FEE7FEE770477047D8
:1030F00010B501F0CFF810BD10B58020C00101F06F
:10310000FBFE8020000201F0F7FE10BD10B5024862
:1031100001F0C3FF10BDC046BC000020054B5A6B38
:1031200001210A435A63996B802252050A439A632C
:103130007047C04600100240084B1A68084B1B68D5
:103140009A4201DA054A1360044B1A68054B1B6862
:103150009A4201DD014A13607047C04664020020B4
:10316000580200205C020020F0B587B005000C007A
:10317000134B00221A60C0273F02124E3900300064
:1031800001F032FE0822002104A802F00EFD019792
:10319000C4239B0302930123039301A9300001F090
:1031A00063FD00220021072001F0D4FF072002F078
:1031B00001F8054B1D60054B1C6007B0F0BDC04613
:1031C0006402002000080050580200205C02002029
:1031D000014B18687047C0466402002010B5024BCE
:1031E0001860FFF7A9FF10BD64020020F8B50500C4
:1031F0008026F6011B4F3100380001F06FFE0400FD
:1032000080210902380001F069FEB5420CD08442E9
:103210001ED0154A1368013B1360144A1368013B22
:103220001360FFF789FFF8BD844208D00E4A136887
:10323000013313600D4A136801331360F1E70A4A42
:103240001368013B1360094A1368013B1360E8E708
:10325000054A136801331360044A1368013313608D
:10326000DFE7C04600080050640200206002002032
:10327000F0B5CE46474680B585B099460CAB1E8862
:103280000DAB1D880700203FFFB25E2F48D81F28D6
:1032900000D807000023052B0AD87800C019400089
:1032A000224C2018C45C02A8C4540133DBB2F2E7FC
:1032B0008FB293B29846F3009BB27200B2185200DC
:1032C00092B200954146380000F05AFB002523E0F9
:1032D0002800704380B22100714389B2414489B211
:1032E000381880B24B4600933300320000F048FBA0
:1032F0000134E4B2072C0DD802AB5A5D2241D3074A
:10330000F6D5012EE4D14346191978194A4600F042
:1033100091FAEDE70135EDB2052D01D80024E9E77A
:1033200005B0C0BCB946B046F0BDC046D465000883
:10333000F0B5DE4657464646C0B584B004009A460E
:103340000CAB1F880DAB1B889B4603919046150064
:103350000E0005E0FD00ADB24544ADB2039E013460
:103360002078002813D00A28F4D00D2801D1039E1C
:10337000F5E7EAB2F1B25B46019300975346FFF7D7
:1033800077FF7B00FB185B00F618B6B2E7E704B0E6
:10339000E0BCBB46B246A846F0BD10B5FFF748FDFD
:1033A000FFF730FCA02000220421C00501F09DFDA4
:1033B00010BD000000B583B06B46D91D0870012315
:1033C0000122024802F029F803B000BD600100208C
:1033D00070B50500A024E40500220421200001F0BE
:1033E00084FD00220821200001F07FFD2800FFF766
:1033F000E1FF01220421200001F077FD70BD70B5CE
:103400000500A024E40501220821200001F06DFD43
:1034100000220421200001F068FD2800FFF7CAFF08
:1034200001220421200001F060FD70BDF8B5070005
:103430000D0016001C002A20FFF7CAFF380AFFF70C
:10344000DEFFF8B2FFF7DBFF300AFFF7D8FFF0B27C
:10345000FFF7D5FF2B20FFF7BBFF280AFFF7CFFFB1
:10346000E8B2FFF7CCFF200AFFF7C9FFE0B2FFF791
:10347000C6FF2C20FFF7ACFFF8BD70B58025AD006E
:10348000A024E40500222900200001F02EFDC82020
:1034900000F012FF00220421200001F026FDC820C8
:1034A00000F00AFF01222900200001F01EFD70BD7E
:1034B00010B504003620FFF78BFF012000F0FCFE62
:1034C000022C26D00ED8002C19D0012C20D1282077
:1034D000FFF795FF144BA02252001A80134B503A6D
:1034E0001A8015E0032C13D1E820FFF788FF0E4B5C
:1034F000A02252001A800D4B503A1A8008E0482052
:10350000FFF77DFF084BF0221A80084B50321A80DB
:1035100010BD8820FFF773FF034BF0221A80034B86
:1035200050321A80F4E7C046060000200400002054
:1035300010B58021A02001228900C00501F0D5FC32
:1035400010BD10B5FFF729FFFFF7F2FFFFF795FF5A
:103550000120FFF73DFFFA20800000F0ADFECB20F8
:10356000FFF736FF3920FFF74AFF2C20FFF747FF10
:103570000020FFF744FF3420FFF741FF0220FFF750
:103580003EFFCF20FFF724FF0020FFF738FFC120C8
:10359000FFF735FF3020FFF732FFE820FFF718FF75
:1035A0008520FFF72CFF0020FFF729FF7820FFF789
:1035B00026FFEA20FFF70CFF0020FFF720FF002086
:1035C000FFF71DFFED20FFF703FF6420FFF717FF54
:1035D0000320FFF714FF1220FFF711FF8120FFF7F0
:1035E0000EFFF720FFF7F4FE2020FFF708FFC020B2
:1035F000FFF7EEFE2320FFF702FFC120FFF7E8FEF2
:103600001020FFF7FCFEC520FFF7E2FE3E20FFF78B
:10361000F6FE2820FFF7F3FEC720FFF7D9FE86202D
:10362000FFF7EDFE3620FFF7D3FE4820FFF7E7FE59
:103630003A20FFF7CDFE5520FFF7E1FEB120FFF75E
:10364000C7FE0020FFF7DBFE1820FFF7D8FEB620EC
:10365000FFF7BEFE0820FFF7D2FE8220FFF7CFFE65
:103660002720FFF7CCFEF220FFF7B2FE0020FFF785
:10367000C6FE2620FFF7ACFE0120FFF7C0FEE020CB
:10368000FFF7A6FE0F20FFF7BAFE3120FFF7B7FEC7
:103690002B20FFF7B4FE0C20FFF7B1FE0E20FFF742
:1036A000AEFE0820FFF7ABFE4E20FFF7A8FEF1208C
:1036B000FFF7A5FE3720FFF7A2FE0720FFF79FFECA
:1036C0001020FFF79CFE0320FFF799FE0E20FFF766
:1036D00096FE0920FFF793FE0020FFF790FEE12001
:1036E000FFF776FE0020FFF78AFE0E20FFF787FE29
:1036F0001420FFF784FE0320FFF781FE1120FFF75F
:103700007EFE0720FFF77BFE3120FFF778FEC12009
:10371000FFF775FE4820FFF772FE0820FFF76FFEE7
:103720000F20FFF76CFE0C20FFF769FE3120FFF73A
:1037300066FE3620FFF763FE0F20FFF760FE1120C4
:10374000FFF746FE782000F0B7FD2920FFF740FE86
:103750000020FFF7ADFE10BDF0B5CE46474680B560
:1037600083B000AF06000D004B009846FA235B00C3
:10377000984500D31D00A024E40501220821200063
:1037800001F0B3FB00220421200001F0AEFB310A5E
:10379000EB1DDB08DB006A46D31A9D466C4600230E
:1037A000AB4204D2E1545A1CA6540233F8E7290074
:1037B0004046FCF7B3FC814629004046FCF734FD47
:1037C0007960A84511D2BA880A2321000C4801F07B
:1037D00024FEA02001220421C00501F086FBBD4685
:1037E00003B0C0BCB946B046F0BD00264E45EAD293
:1037F000AAB20A232100024801F00FFE0136F5E7C4
:103800006001002070B50400084E328892B2084D65
:103810002B889BB200210020FFF708FE33882988FF
:1038200059432000FFF798FF70BDC04606000020F6
:1038300004000020F0B585B004000F0015004D4BCA
:103840001B889BB2834204D94B4B1B889BB28B4293
:1038500001D805B0F0BDA026F605002208213000F1
:1038600001F043FB00220421300001F03EFB2A203E
:10387000FFF7A0FD01220821300001F036FB0122F4
:103880000421300001F031FB00220421300001F05E
:103890002CFB03A9230A0B70E3B24B7001342412F2
:1038A0008C700133CB70354C01230422200001F0D1
:1038B000B4FD01220421300001F017FB0022082191
:1038C000300001F012FB00220421300001F00DFB5A
:1038D0002B20FFF76FFD01220821300001F005FBCE
:1038E00001220421300001F000FB002204213000FD
:1038F00001F0FBFA02A93B0A0B70FBB24B700137D7
:103900003F128F700133CB7001230422200001F09D
:1039100084FD01220421300001F0E7FA0022082191
:10392000300001F0E2FA00220421300001F0DDFA5B
:103930002C20FFF73FFD01220821300001F0D5FACD
:1039400001220421300001F0D0FA002204213000CD
:1039500001F0CBFA2B0A6A4613715571012302223A
:1039600001A9200001F059FD01220421300001F0DD
:10397000BCFA6EE706000020040000206001002071
:1039800070B514001D0004AB1E88174B1B889BB23A
:10399000834227D9154B1B889BB28B4222D98218B0
:1039A000114B1B889BB29A4203DD0F4B1C88241AD3
:1039B000A4B24A190D4B1B889BB29A4203DD0B4BF4
:1039C0001D886D1AADB2221892B26B189BB2013BE2
:1039D0009BB2013A92B2FFF729FD21006943300002
:1039E000FFF7BAFE70BDC0460600002004000020AC
:1039F00010B5FFF76FFA014B186010BD6802002088
:103A000010B582B00005830C800E6A4610715371A8
:103A1000A024E40500221021200001F066FA012311
:103A2000064A10685B42022201A901F0F6FC01225D
:103A30001021200001F059FA02B010BD68020020E8
:103A400010B5041C0021FCF745FC002816D1201CF1
:103A5000FEF76AFD0B4A0C4BFCF716FC00280FD151
:103A60000A49201CFCF772FFFEF75EFD054A064B73
:103A7000FDF7F0FAFCF7B6FC80B210BD0020FCE7C1
:103A80000348FAE7FCA9F1D24D62F03F00F07F4510
:103A9000FF0F000010B5FFF7D3FFFFF7B1FF10BD18
:103AA00010B582B00400084B18680849FCF736FBD3
:103AB00044430194019B002B03D0019B013B0193E4
:103AC000F8E702B010BDC0461000002040420F00D1
:103AD00070B5040003689A68520725D59A685207A2
:103AE00006D59A68920703D49A6810210A439A600F
:103AF00000F0DCFB050023689B685B0712D500F033
:103B0000D5FB401B0A28F6D923689B685B07F2D5D2
:103B1000636D102213436365A36D0F3A1343A365CE
:103B2000012002E0002000E0002070BD70B504001C
:103B30000268916803230B40012B01D0002070BD67
:103B40001368DB0731D5916805230B40012B09D0A1
:103B5000436D102213434365836D0F3A134383650E
:103B60000120ECE7936802210B4393600368032272
:103B70001A6000F09BFB050023689B68DB0712D5E9
:103B800000F094FB401B0A28F6D923689B68DB07EA
:103B9000F2D5636D102213436365A36D0F3A13438F
:103BA000A3650120CBE70020C9E70020C7E700009C
:103BB00070B504000268916803230B40012B0DD0FF
:103BC00091681A4B19420ED0636D1022134363653E
:103BD000A36D0F3A1343A365012070BD1368DB0783
:103BE000EED50020F9E7936801210B439360012093
:103BF000FFF756FF00F05AFB050023681B68DB0740
:103C000012D400F053FB401B0A28F6D923681B6826
:103C1000DB07F2D4636D102213436365A36D0F3A83
:103C20001343A3650120D8E70020D6E717000080E2
:103C300070B5041E00D1E2E0436D002B30D0636DFF
:103C4000DB0633D422689168042005000D40084249
:103C50002CD1616D6B4B19400633FF3319436165FD
:103C6000916801330B40012B29D06368C0210906FC
:103C70008B4228D08021C9058B4224D0802109069F
:103C80008B4220D013699B009B0813615E4B1A681E
:103C90005E490A401A601A6861680A431A601BE0AC
:103CA000836550228354FFF747F8C8E7636D1022FD
:103CB0001343636550230022E254012070BD136852
:103CC000DB0713D4D1E713699B009B0813612268BB
:103CD000136961680B4313612268D36818218B4311
:103CE000D3602268D368A1680B43D360464A136847
:103CF00047490B4013601368616B49060B4313601F
:103D000023689A68D20004D49968802252050A4335
:103D10009A602368DA683F490A40DA602068C2681E
:103D2000E368216902292DD02B432021615C4903DE
:103D30000B432C21615C49000B43216B0B43A169B0
:103D400089030B43E169C9030B431343C360636AEF
:103D5000C222FF32934205D02168CA68A06A034399
:103D60001343CB602123E35C012B0DD0E36B012BCC
:103D70001ED023681A69D2072DD51A6901218A43FA
:103D80001A6128E00425CFE71F33E35C002B06D13E
:103D90002268D16880235B020B43D360E6E7636D42
:103DA000202213436365A36D1F3A1343A365DDE728
:103DB0002268136918490B40136121680A69236C52
:103DC000606C0343A06C034313430B6122681369C7
:103DD00001210B4313612268536907218B4353610F
:103DE00022685369A16B0B4353610023A365636D84
:103DF00003229343023A1343636500205EE70120E8
:103E00005CE7C046FDFEFFFF08270140FFFFC3FF40
:103E1000FFFFFFFD1902FEFF03FCFFFFF8B50400E2
:103E20000E004769082F04D00368DB68DB0718D44D
:103E30000C2700F03BFA050023681A6817421FD1CF
:103E4000731CF9D0002E15D123681B681F42F3D1D3
:103E5000636D04221343636550230022E254032060
:103E600034E0436D20221343436550230022C254A3
:103E700001202BE000F01AFA401BB042DCD9E3E746
:103E8000616D802292000A436265D968C0221201E6
:103E9000114214D12022A25C002A10D11A68120704
:103EA0000DD59A68520712D45A680C218A435A6079
:103EB000636D0C4A13400432FF3213436365A369F8
:103EC000002B0DD123680C221A600020F8BD636D11
:103ED000202213436365A36D1F3A1343A365EEE7E6
:103EE0000020F3E7FEFEFFFFF8B504000D0016000A
:103EF00003689A6852073CD45022825C012A3AD067
:103F0000012150228154DA680A43DA60C369012B27
:103F100004D0FFF74DFE071E29D100E00027636D96
:103F2000164A1A4080235B00134363650023A36590
:103F30005022A354E36C124ADA62E36C114A1A630A
:103F4000E36C114A5A6323681C221A602268536882
:103F500010210B4353602168403133002A00E06C8C
:103F600001F03CF82268936804210B439360380009
:103F7000F8BD0227FBE70227F9E7C046FEF0FFFF86
:103F8000154000088B4000089740000870B50400F9
:103F90005023C35C012B36D050230122C254FFF7BB
:103FA00097FD051E1DD12268D36801218B43D36084
:103FB000E06C2523C35C022B18D0226853681021C3
:103FC0008B435360002D1AD12000FFF7AFFD050091
:103FD000002D06D1636D0D4A13400432FF321343A6
:103FE000636550230022E254280070BD01F031F8CF
:103FF000051EE2D0636D402213436365DDE72000B8
:10400000FFF794FDE4E70225EEE7C046FEFEFFFF62
:104010007047000010B5836A5A6D502111422CD1AF
:10402000596D802292000A435A651A68D068C021EF
:104030000901084214D12021595C002910D11168CE
:1040400009070DD5916849070ED451680C208143AA
:1040500051605A6D0B490A400431FF310A435A65D9
:104060001800FFF7D5FF10BD5A6D20210A435A658D
:104070009A6D1F390A439A65F2E7DB6C5B6B9847D0
:10408000F1E7C046FEFEFFFF704710B5806AFFF7FC
:10409000FBFF10BD704710B5806A436D402213438B
:1040A0004365836D3C3A13438365FFF7F3FF10BD0F
:1040B00070B504000D005023C35C012B4BD050237E
:1040C0000122C25403689A6852071AD4234A4968E5
:1040D000914229D0996A2A685203520B0A439A6284
:1040E0002B685B0316D42B689B0305D51C4A11680B
:1040F0008023DB030B43136050230022E254002093
:1041000070BD436D20221343436550230022C254E7
:104110000120F5E7124A116880231B040B4313604A
:104120000A20FFF7BDFCDEE7996A2A685203520BAA
:10413000914399622B685B0304D5094A13680949C6
:104140000B4013602B689B03D6D5054A13680649BC
:104150000B401360D0E70220D2E7C04601100000F8
:1041600008270140FFFF7FFFFFFFBFFF70B504007E
:104170005023C35C012B4DD050230122C25403684D
:10418000996802320A40012A08D11A68D20705D577
:10419000436D202213434365012037E0626D1E49C1
:1041A0000A400631FF310A436265DE6801310E4084
:1041B000DA688A43DA602268916880231B060B4321
:1041C000936000F073F8050023689A68002A13DAF8
:1041D00000F06CF8401B0A28F6D923689B68002B76
:1041E000F2DA636D12229343023A1343636550235C
:1041F0000022E25401200CE0DA681643DE60636DB1
:1042000003229343023A13436365002050230022A4
:10421000E25470BD0220FCE7FDFEFFFF10B5040074
:104220000F4B1978FA208000FBF778FF01000D4B47
:104230001868FBF773FF00F0C9FF00280DD1032CAD
:1042400001D901200AE0013000222100404200F0A3
:1042500081FF054B1C60002000E0012010BDC0461E
:1042600008000020100000200C00002010B5084AB3
:10427000136840210B4313600020FFF7CFFF041E9B
:1042800002D00124200010BDFEF748FFFAE7C04627
:1042900000200240034A1168034B1B785B1813602F
:1042A0007047C0466C02002008000020014B1868CF
:1042B0007047C0466C02002070B50400FFF7F6FF9F
:1042C0000500631C02D0044B1B78E418FFF7EEFFD7
:1042D000401BA042FAD370BD0800002010B5264B49
:1042E000DA680C231340082B42D00C2B11D0042B7E
:1042F00009D0214B5A68520B072313400133802009
:104300000002984010BD1C4B1B68DB0632D51B48D1
:10431000F8E7910C0F230B401949C85C920D032359
:104320001A40541C144BDB68DB0309D5154A0023E3
:104330000021FCF717F822000023FBF7F3FFE1E769
:104340000D4B1B68DB0609D50C4A00230021FCF746
:1043500009F822000023FBF7E5FFD3E70A4A002310
:104360000021FBF7FFFF22000023FBF7DBFFC9E77B
:104370000448C7E70448C5E70010024000093D00B3
:104380007468000800127A000024F400F0B583B0CD
:10439000041E00D165E2C54BDA680C251540DE68C5
:1043A00080235B021E400368DB0736D5082D2CD026
:1043B0000C2D28D0636880225202934255D0A0224F
:1043C000D202934258D0B94B1A68B9490A401A60D0
:1043D0001A68802149020A400192019A1A68B54977
:1043E0000A401A606368002B52D0FFF75FFF070096
:1043F000AE4B1B689B0310D4FFF758FFC01B64280B
:10440000F6D903202EE2002ED4D0A84B1B689B03C4
:1044100003D56368002B00D126E223689B076DD586
:10442000E3689A0605D5A148026820210A43026084
:104430008B43042D3CD00C2D38D0002B00D1B0E0A4
:104440009A490A680920824313430B60FFF72EFF45
:104450000600964B1B685B0700D599E0FFF726FF27
:10446000801B0228F5D90320FCE1904A11688023C3
:104470005B020B431360B5E78C4B19688022D202B4
:104480000A431A601968802252020A431A60A9E797
:10449000FFF70CFF0700854B1B689B03BDD5FFF79B
:1044A00005FFC01B6428F6D90320DBE1002EC4D130
:1044B0007E4A1268520702D5002B00D1D6E17B4E0E
:1044C00072687D490A40216909020A4372603268B4
:1044D00009218A4313433360FFF700FFF268120992
:1044E0000F231340754AD35CD840754B1860754B49
:1044F0001868FFF793FE002800D0B3E12368DB06BD
:104500002DD5002D60D1694B1B689B0503D5A36990
:10451000002B00D1ACE1654A53686B490B40216A1E
:104520000B43536053681B021B0AE16909060B43E6
:104530005360236A590B013180231B028B40D168E1
:1045400009090F220A405D498A5CD3405C4A136026
:104550005C4B1868FFF762FE002800D082E12368F8
:104560001B077DD56369002B67D0504A136D01216D
:104570000B431365FFF79AFE06004C4B1B6D9B0720
:104580006ED4FFF793FE801B0228F6D9032069E161
:1045900046494B68484A13402269120213434B6054
:1045A000ACE7424A136801218B431360FFF77EFE9C
:1045B00006003E4B1B685B07A0D5FFF777FE801B0C
:1045C0000228F6D903204DE1A369002B22D0374AF7
:1045D000116880235B000B431360FFF767FE060042
:1045E000324B1B689B0506D4FFF760FE801B022838
:1045F000F6D9032036E12D4A536833490B40216A2E
:104600000B43536053681B021B0AE16909060B4305
:104610005360A4E7254A13682C490B401360FFF749
:1046200045FE0600214B1B689B0598D5FFF73EFE13
:10463000801B0228F6D9032014E11C4A136D0121C6
:104640008B431365FFF732FE0600184B1B6D9B076B
:1046500006D5FFF72BFE801B0228F6D9032001E1C7
:1046600023685B0700D48EE0104B9B6BDB001BD4F0
:104670000E4A916B80235B050B4393630126144B19
:104680001B68DB0528D5A36880225200934237D0EF
:10469000002B4DD1054B1A6D0C490A401A651A6D55
:1046A0000C490A401A6531E00026E8E70010024094
:1046B000FFFFFEFFFFFFFBFFFFE0FFFF5C6800085E
:1046C000100000200C000020FF1FFFFFFFFEFFFF77
:1046D00000700040FFFBFFFF6B4A116880235B0006
:1046E0000B431360FFF7E2FD0700674B1B68DB0518
:1046F000C9D4FFF7DBFDC01B6428F6D90320B1E065
:10470000624A116D80235B000B431365A368002B85
:1047100028D0FFF7CBFD07005C4B1B6D9B0530D409
:10472000FFF7C4FDC01B5A4B9842F5D9032099E00E
:10473000A022D200934209D0544B1A6D55490A4029
:104740001A651A6D54490A401A65DFE74F4B196D17
:10475000013AFF3A0A431A65196D802252000A4352
:104760001A65D3E7FFF7A2FD0700484B1B6D9B05B9
:1047700007D5FFF79BFDC01B454B9842F5D9032099
:1047800070E0012E1AD0636A002B00D172E00C2D6C
:104790004FD0022B18D03D4A136840490B4013609C
:1047A000FFF784FD0400394B1B689B013FD5FFF7E1
:1047B0007DFD001B0228F6D9032053E0334A936B9A
:1047C00037490B409363DEE7304A136833490B40A7
:1047D0001360FFF76BFD05002C4B1B689B0106D592
:1047E000FFF764FD401B0228F6D903203AE0274971
:1047F000CB682C4A1340A26AE06A0243206B024352
:104800001343CB600A6880235B0413430B60FFF7FC
:104810004DFD04001D4B1B689B0106D4FFF746FDB0
:10482000001B0228F6D903201CE000201AE000201B
:1048300018E0012B20D0154BDA6880235B0213406F
:10484000A16A8B421AD1F0239B031340E16A8B4289
:1048500016D1C0231B041A40236B9A4212D10020A8
:1048600000E0012003B0F0BD0120FBE70120F9E7E3
:104870000120F7E70020F5E70120F3E70120F1E749
:104880000120EFE70120EDE700700040001002403A
:1048900088130000FFFEFFFFFFFBFFFFFFFFFFFE8F
:1048A000FFFFFFEFFFFF02FF70B505000C000028BF
:1048B00000D1D1E06A4B1A68012313408B4219D30F
:1048C0002B689B0706D5674AD368F0218B43A968FC
:1048D0000B43D3602B68DB077BD56B68022B20D0A2
:1048E000032B40D0012B44D05E4A126892051DD4A0
:1048F000012099E05A4A136801218B432343136036
:10490000FFF7D4FC0600564B1A6801231340A3425C
:10491000D6D0FFF7CBFC801B534A9042F3D903203B
:1049200082E0504A1268920300D497E04D49CA6869
:10493000032082431343CB60FFF7B8FC06006B688B
:10494000022B1CD0032B28D0012B34D0454BDB6825
:104950000C221A423DD0FFF7A9FC801B424B984223
:10496000F4D9032060E03F4A12689201DED40120AE
:104970005AE03C4A12685207D8D4012054E0394B1F
:10498000DA680C231340082B23D0FFF78FFC801B21
:10499000354A9042F3D9032046E0324BDA680C23C3
:1049A00013400C2B15D0FFF781FC801B2E4B984237
:1049B000F3D9032038E02B4BDA680C231340042B87
:1049C00007D0FFF773FC801B274B9842F3D90320D5
:1049D0002AE0234B1A6801231340A34225D82B68F1
:1049E0005B0706D51F4AD36820490B40E9680B4393
:1049F000D3602B681B0707D51A49CB681C4A1340A4
:104A00002A69D2001343CB60FFF768FC154BDA68C4
:104A100012090F231340174AD35CD840164B186075
:104A2000164B1868FFF7FAFB70BD0D4A1368012199
:104A30008B4323431360FFF739FC0600084B1A68C9
:104A400001231340A342CAD0FFF730FC801B064B62
:104A50009842F3D90320E7E70120E5E70120E3E7E7
:104A6000002002400010024088130000FFF8FFFF02
:104A7000FFC7FFFF5C680008100000200C0000204A
:104A8000014B18687047C0461000002010B5FFF7B2
:104A9000F7FF044BDA68120A07231340024AD35C7B
:104AA000D84010BD001002406C68000810B5FFF738
:104AB000E7FF044BDA68D20A07231340024AD35CAB
:104AC000D84010BD001002406C68000870B50400AA
:104AD00003689B064CD55A4B9B6BDB0072D4584A3B
:104AE000916B80235B050B4393630125554B1B683A
:104AF000DB0569D5524B1968C0239B0319406268D6
:104B000013408B4205D0C0239B02110019409942EB
:104B10006ED04B4B196DC0239B0208001840194200
:104B200015D01A40824212D023689B060FD5444B01
:104B3000186D454A02401E6D8021090331431965F5
:104B4000196D424E314019651A65C30556D4636824
:104B5000C02292021900114091425ED038490B6D7B
:104B6000C02292026068024013430B65012D5ED0A3
:104B700023689B0706D5324AD36C0C218B43A1686E
:104B80000B43D36423685B0706D52D4AD36C3049A9
:104B90000B40E1680B43D36423681B0706D5284A02
:104BA000D36C2C490B4021690B43D36423681B064B
:104BB00043D5234AD36C28490B4061690B43D36426
:104BC00000203BE0002591E71E4A116880235B002E
:104BD0000B431360FFF76AFB06001A4B1B68DB05EB
:104BE00088D4FFF763FB801B6428F6D9032025E0F7
:104BF000134B1B689B038CD501201FE0FFF756FB6E
:104C000006000F4B1B6D9B05A1D4FFF74FFB801BCC
:104C1000124B9842F5D9032010E009490A68104860
:104C20000240C0208003034013430B6096E70A0054
:104C30008B6B0C490B4093639AE7002070BDC04614
:104C40000010024000700040FFFFFCFFFFFFF7FF75
:104C5000FFF3FFFFFFCFFFFFFFFFF3FF881300000D
:104C6000FFFFCFFFFFFFFFEFF0B5002357E08468A1
:104C70005F000326BE40B4432600CC68BC403443EA
:104C80008460446894434A681609012232409A407D
:104C90002243426053E0DC080834A4002658053261
:104CA0001A4092000F279740BE430F6997403A0081
:104CB0003243225057E0052600E00026A64034008B
:104CC0003C4302329200424E9451424A1468EA43F5
:104CD0002600AE434F68FF0301D52C4326003D4C10
:104CE00026606468260016404F68BF0301D52C4338
:104CF0002600384C6660A468260016404F68FF0204
:104D000001D52C432600334CA660E46822404E684F
:104D1000B60201D52A0022432E4CE26001330C6812
:104D20002200DA4053D001229A4025001540144257
:104D3000F4D003244E683440013C012C97D903225F
:104D40004C682240032A09D0C2685E000324B440A4
:104D5000A24314008A68B2402243C26003224C6816
:104D60002240022A97D004685E0003221700B74051
:104D7000BC434F683A40B24022430260C0229202D4
:104D80004C681442CAD0144C626B012632436263F1
:104D90009A08941CA4000E4EA75903241C40A4009A
:104DA0000F26A640B743A026F605B04285D00B4E8D
:104DB000B04208D00A4EB04207D00A4EB04200D1ED
:104DC00079E706267AE7012678E7022676E7F0BD3E
:104DD00000000140000401400010024000040050A7
:104DE00000080050001C0050F0B5CE46474680B584
:104DF0008946002323E00521884601E000218846FA
:104E00004146A140A94246D004685E000325B54052
:104E10002C430460DC080834A400275807261E40F1
:104E2000B6000F21B1408F432750C468AC43C46023
:104E30004468944344608268AA43826001334A46CE
:104E4000DA403DD001229A404C461440A4464946DF
:104E50001142F3D09F08BC1CA4001B4D65590324CC
:104E60001C40A4000F26A6403540A021C905884259
:104E7000C4D01649884208D01549884208D015493F
:104E80008842B8D006218846BAE701218846B7E7AC
:104E900002218846B4E7104C256861468D432560A1
:104EA00065688D436560A5688D43A560E5688D43A1
:104EB000E5600549BC1CA4006558B5436550A3E7EF
:104EC000C0BCB946B046F0BD00000140000400502F
:104ED00000080050001C00500004014003690B4210
:104EE00001D0012070470020FCE7002A01D0816139
:104EF00070478162FCE7000010B5054B5B69184202
:104F000000D110BD024B5861FEF770F9F9E7C046B9
:104F10000004014070B51C25446C2540066C01243A
:104F2000AC407460046863608368102B04D003682D
:104F300099600368DA6070BD03689A600368D9609D
:104F4000F9E7000070B5041E3DD005681F4BE81856
:104F50001421FBF7E3F8800060641D4B23642523D4
:104F60000222E2542B681B4A1A40A368E1680B43F3
:104F700021690B4361690B43A1690B43E1690B4351
:104F8000216A0B4313432B608023DB01A2689A4202
:104F900010D0114B19681C22656C15400F20A840D9
:104FA000814319601968606C02406068904002009B
:104FB0000A431A600023E36325220121A154013A28
:104FC000A354002070BD0120FCE7C046F8FFFDBFE0
:104FD000000002400F80FFFFA800024070B50400EF
:104FE0002420205C012832D02420012525540130C2
:104FF000205C012804D024230022E254022070BD4A
:105000002430013525540020E063256828680126F6
:10501000B04328602000FFF77DFF236B002B0BD0EF
:10502000226813680E210B43136022681368012164
:105030000B4313600020E2E72268136804218B43CE
:1050400013602268136806310B431360EDE70220FA
:10505000D5E710B52523C35C022B06D00423C36318
:1050600020330022C254012010BD026813680E21B3
:105070008B43136001680A6801239A430A601C226B
:10508000416C0A40016C1C0094404C602522835402
:1050900023330022C2540020E6E770B5036C196880
:1050A000046825681C23426C134004229A40114274
:1050B00014D06A0712D523689B0603D42368042200
:1050C000934323601C22436C1A40016C04239340D9
:1050D0004B60036B002B00D0984770BD02229A40B2
:1050E00011421AD0AA0718D523689B0606D4236854
:1050F0000A22934323602523093AC2541C22436C9D
:105100001A40016C022393404B6024230022C254B6
:10511000C36A002BE1D09847DFE708229A4011428A
:10512000DBD02B07D9D523680E22934323600E32A0
:10513000436C1A40016C01231C0094404C60C36313
:105140002522835423330022C254436B002BC4D046
:105150009847C2E770B5002811DB8308134EC033AF
:105160009B009D5903242040C000FF22140084406E
:10517000A54389010A4082402A439A5170BD0F23FA
:105180000340083B9B0806339B00094A944663444E
:105190005C6803221040C000FC3215008540AC431F
:1051A00089010A40824022435A60E7E700E100E0BB
:1051B00000ED00E0002805DB1F2318401E3B834064
:1051C000014A13607047C04600E100E001388023C7
:1051D0005B0498420FD2094A50600948036A1B02D7
:1051E0001B0AC02109060B430362002393600733A7
:1051F0001360002070470120FCE7C04610E000E08B
:1052000000ED00E0F0B5D6464F464646C0B582B048
:1052100006000D0090461F00FFF748F80A9B181A79
:105220008146B944FFF742F882462E4B1B685B016A
:105230001B0D4A465343019333689C682C40641B02
:1052400063425C41444545D07B1CF5D0FFF72EF806
:105250005346C01A48450BD24B46002B08D0019A42
:10526000002A00D04A46019B013B01939146E3E7A7
:1052700032685368E0218B43536082235B0072687D
:105280009A420CD080239B01B26A9A4216D05123D5
:105290000122F254013B0022F25403201BE0B368C8
:1052A00080221202934203D08022D2009342E9D19D
:1052B0003268136840218B431360E3E73268136858
:1052C00009490B4013603268116880239B010B432E
:1052D0001360DCE7002002B0E0BCBA46B146A84645
:1052E000F0BDC04610000020FFDFFFFF70B584B0A6
:1052F00004000D001600174B18681749FAF70EFF47
:1053000002004001801A80008018C00003908223B0
:105310005B0062689A420BD0039B002B17D0039B63
:10532000013B039323689B681B06F5D400200FE024
:1053300000962B00002280212000FFF763FF002849
:1053400006D0636D202213436365032000E0002034
:1053500004B070BD1000002000366E0170B5041E50
:1053600059D0436A002B07D10533FF3342689A4274
:1053700005D00023C36102E00023036143610023E1
:10538000A3625133E35C002B3ED051220221A15491
:10539000206803684025AB43036082235B0060689C
:1053A000034084200002A5682840034380200001B8
:1053B000E56828400343206901400B4301206169EF
:1053C00001400B4380218900A56929400B43382106
:1053D000E56929400B438021256A29400B43802140
:1053E0008901A56A294025680B432B60618B042342
:1053F0000B401021656A294025680B436B60002330
:105400006365A054002070BD50330022E254200098
:10541000FDF730FDB9E70120F5E7F0B5CE4600B560
:1054200084B00400019191461D005023C35C012B00
:1054300000D1C7E050230122C254FEF737FF060017
:105440005123E35CDFB2012B00D0A7E001990029D2
:1054500000D1A4E04B46002B00D1A0E05123032251
:10546000E2540023636521634A46A286E286A36371
:10547000A387E3876364236480231B02A2689A42A4
:105480001ED023681A68520603D41A6840210A43C2
:105490001A6080231B01E2689A421DD06368002BCA
:1054A00002D04B46012B4ED1236B1B78226813731D
:1054B000236B01332363E38E013B9BB2E38642E01F
:1054C0002268136840218B4313602268116880238F
:1054D000DB010B431360D4E76368002B02D04B461B
:1054E000012B14D12368226B1288DA60236B0233FC
:1054F0002363E38E013B9BB2E38608E0FEF7D6FE12
:10550000801BA84201D36B1C54D1002D54D0E38ED4
:105510009BB2002B2AD023689A689207EED5226BA3
:105520001288DA60236B02332363E38E013B9BB264
:10553000E386ECE7FEF7BAFE801BA84201D36B1CA2
:105540003CD1002D3CD0E28E92B2002A0ED02368CE
:105550009A689207EED5226B12781A73236B013387
:105560002363E28E013A92B2E286ECE73200290030
:105570002000FFF7BBFE002801D020236365A3684D
:10558000002B06D103932368DA6803929B68039388
:10559000039B636D002B02D1002700E002275123FB
:1055A0000122E254013B0022E254380004B080BCE6
:1055B000B946F0BD0327F2E70327F0E70327EEE73C
:1055C0000327ECE70227F0E7D0B504000168836801
:1055D0000269134342691343C26913430A68874847
:1055E000024013430B602268536885490B40E16811
:1055F0000B435360A1692268824B9A4201D0236A0F
:1056000019439368804803400B43936022687F4BA3
:105610009A4212D07B4B9A4220D0102379498A4279
:1056200042D0E0698022120290427AD0082B00D941
:10563000DEE09B00764AD3589F46764BD96C0C230C
:105640000B40082B22D005D8002B21D0042BE5D00D
:105650001023E3E70C2B1DD1043BDFE76D4BDB6C24
:10566000C02109010B40802109018B4214D007D8C9
:10567000002B13D08021C9008B4211D10423CDE728
:10568000C02109018B420DD10823C7E70223C5E7DA
:105690000023C3E71023C1E70223BFE70023BDE7D0
:1056A0001023BBE71023B9E7042B35D00BD8002B10
:1056B0002CD0022B05D1574B1B68DB062FD4564844
:1056C00005E0012073E0082B1ED1802000026268F3
:1056D00053009B18834200D97EE01303834200D21B
:1056E0007CE0070E06025008002180197941002352
:1056F000FAF718FE494BC218494B9A4200D96FE09D
:105700002368D860002052E0012050E0FFF7BEF986
:105710000028DCD100204AE0FEF7E0FDF8E7414830
:10572000D5E7082B5ED89B003F4AD3589F46FFF72A
:10573000ADF9002858D0400063685B08C018616864
:10574000FAF7ECFC83B20004000C01001039374A70
:1057500091424BD80F2293431A0040080723184068
:1057600010432368D860002021E0FFF79FF9E0E7AD
:10577000284B1B68DB0604D42748DCE7FEF7AEFDA8
:10578000D7E72848D7E7FFF781F9002832D06368C8
:105790005B0818186168FAF7C1FC0004000C0200ED
:1057A000103A224B9A4227D82368D8600020002361
:1057B0006366A366D0BDFFF779F9E6E7154B1B6872
:1057C000DB0607D41448E2E7FEF788FDDDE780201A
:1057D0000002DCE71348DAE70120E8E70120E6E70A
:1057E0000120E4E70120E2E70020E0E70120DEE716
:1057F0000120DCE70020DAE70120D8E7F369FFEFBA
:10580000FFCFFFFF00480040FFF4FFFF00440040CF
:1058100014680008001002400024F40000FDFFFF9F
:10582000FFFC0F0000093D0038680008EFFF000092
:10583000436ADB0706D5026853682C490B40816A2E
:105840000B435360436A9B0706D502685368284997
:105850000B40C16A0B435360436A5B0706D502687D
:10586000536824490B40016B0B435360436A1B0789
:1058700006D50268536820490B40416B0B435360C7
:10588000436ADB0606D5026893681C490B40816BAE
:105890000B439360436A9B0606D5026893681849D8
:1058A0000B40C16B0B439360436A5B060BD50268E8
:1058B000536814490B40016C0B43536080235B0316
:1058C000026C9A420AD0436A1B0606D502685368E6
:1058D0000D490B40816C0B4353607047026853685D
:1058E0000A490B40416C0B435360ECE7FFFFFDFF9F
:1058F000FFFFFEFFFFFFFBFFFF7FFFFFFFEFFFFF4D
:10590000FFDFFFFFFFFFEFFFFFFFF7FFFFFF9FFF3F
:10591000F8B5CE46474680B506000D0017009946FB
:10592000089B98463368DC692C40641B63425C41E9
:10593000BC4253D143460133F4D0FEF7B7FC4B468B
:10594000C01A40452CD84346002B29D033681A682A
:105950005207E7D5DA691205E4D5802212011A62EE
:10596000EFF31080012282F3108831680B681E4C1F
:1059700023400B6080F31088EFF3108082F31088CF
:1059800031688B6893438B6080F310882023B36762
:10599000F3677F32B35054330022F25403201EE0E9
:1059A000EFF31080012282F3108831680B680E4CEF
:1059B00023400B6080F31088EFF3108082F310888F
:1059C00031688B6893438B6080F310882023B36722
:1059D000F36754330022F254032000E00020C0BCDF
:1059E000B946B046F8BDC0465FFEFFFF30B583B094
:1059F000040080230022C250FEF758FC05002368F3
:105A00001B681B070DD423681B685B0716D4202373
:105A1000A367E367002323667422A354002003B026
:105A200030BD80210C4B009303000022890320002D
:105A3000FFF76EFF0028E6D00320F0E78021064B39
:105A400000932B000022C9032000FFF761FF00280C
:105A5000DDD00320E3E7C046FFFFFF0110B5041EC1
:105A60002ED0836F002B21D02423A36722681368D4
:105A700001218B4313602000FFF7A6FD012814D0FD
:105A8000636A002B18D1226853680E490B4053609B
:105A9000226893682A218B4393602268136829390E
:105AA0000B4313602000FFF7A1FF10BD74330022E9
:105AB000C254FDF731FAD7E72000FFF7B9FEE2E75D
:105AC0000120F2E7FFB7FFFF7047000000B583B089
:105AD000094A116B012319431163126B134001939F
